:020000040020DA
:100000000000082075042000C5042000F5452000EC
:10001000FB452000014620000746200000000000AC
:10002000000000000000000000000000995A2000BD
:10003000C504200000000000335B2000435B20006B
:10004000C5042000C5042000C5042000C50420000C
:10005000C5042000C5042000C5042000C5042000FC
:10006000C5042000C5042000C50420001120200084
:100070001D202000292020003520200041202000C4
:100080004D20200059202000C5042000AD0620008E
:10009000A1062000C5042000B1062000C5042000F0
:1000A000C5042000C5042000C5042000C5042000AC
:1000B000C5042000C5042000C5042000C50420009C
:1000C000C5042000C5042000C50420008D152000B3
:1000D00099152000C5042000C5042000C504200097
:1000E000C5042000C5042000C5042000C50420006C
:1000F000C5042000C5042000C504200065202000A0
:10010000C5042000C5042000C5042000A51520005A
:10011000C5042000C5042000C5042000C50420003B
:10012000712020007D2020008920200095202000C3
:10013000A1202000C5042000C5042000C106200025
:10014000B5062000C5042000C5062000C504200017
:10015000AD202000B9202000C5202000C5042000CB
:10016000C5042000C5042000C5042000C5042000EB
:10017000C5042000C5042000C504200000000000C4
:10018000C5042000C5042000C5042000C5042000CB
:10019000B1152000BD152000C9152000C5042000A0
:1001A000C5042000C5042000C5042000C5042000AB
:1001B000C5042000C5042000C5042000C50420009B
:1001C000C5042000C504200000000000C504200074
:1001D000C5042000C5042000C5042000C50420007B
:1001E000D5062000C9062000C5042000D90620003D
:1001F000C5042000C50420000348044B834202D0FC
:10020000034B03B11847704768150020681500209C
:10021000000000000548064B1B1AD90F01EBA30193
:10022000491002D0034B03B11847704768150020EE
:10023000681500200000000010B5064C237843B973
:10024000FFF7DAFF044B13B10448AFF3008001233A
:10025000237010BD68150020000000004406260031
:1002600008B5054B1BB105490548AFF30080BDE853
:100270000840FFF7CFBF00BF000000006C15002052
:1002800044062600A3F5803A704700BF174B002BA9
:1002900008BF134B9D46FFF7F5FF00218B460F4625
:1002A0001348144A121A3FF0CBFA0E4B002B00D021
:1002B00098470D4B002B00D09847002000210400E8
:1002C0000D000D48002802D00C4805F0D1F842F08E
:1002D0006DFA2000290007F06FF905F0CFFA00BF92
:1002E0000000080000000000117520000000082038
:1002F00068150020305200207154200000000000DA
:100300002D4B00211A6C42F0805230B5B9B01A64FE
:100310001B6C0446012502A803F080530093009B48
:10032000264B1A6842F440421A601B6803F44043AB
:100330000193019BCDE9025102F044FB002C4FF0E8
:1003400002044FF0040114BF4FF4A0234FF4803394
:1003500007A8079508934FF480031194CDE90D4346
:10036000D823CDE90F130923CDE9123402F038F96F
:1003700010B1002039B030BD02F0FAF80028F8D1F1
:100380000F234FF4A0520490072102A8CDE90234B4
:100390004FF48053CDE9052302F014FB0028E8D187
:1003A0004FF40013339014A8149302F037FCB0FA02
:1003B00080F04009DEE700BF0038024000700040D6
:1003C000244B1A6C42F0805270B5B8B01A641B6CA2
:1003D0000025012602A803F0805329460224019338
:1003E000019BCDE9026502F0EDFA1023082107A870
:1003F0000B93D82307940A9608951194CDE90F130F
:100400000923CDE90D45CDE9123402F0E9F810B128
:10041000002038B070BD02F0ABF80028F8D10F23EF
:100420004FF4A0520490072102A8CDE902344FF402
:100430008053CDE9052302F0C5FA0028E8D14FF436
:100440000013339014A8149302F0E8FBB0FA80F084
:100450004009DEE70038024008B50120FFF750FFF1
:1004600028B9FFF7ADFF10B9014804F0B5FD08BD8C
:100470006C2F2500DFF834D0002103E00C4B5B58D3
:10048000435004310B480C4B42189A42F6D30B4AA6
:1004900002E0002342F8043B094B9A42F9D301F0F1
:1004A00017FEFFF7F3FE70477047000000000820BA
:1004B0002C3A2600F802002068150020681500205C
:1004C00030520020FEE70000F8B545688423184F3D
:1004D000064603FB05739A68B2F5805F15D11B6968
:1004E00040F2FF14002B18BFFF24842303FB057385
:1004F000A3F85C40304600F081FD0028FAD0842348
:100500005D437B59586A2040F8BD2AB91B69002B0E
:100510000CBFFF247F24E8E7B2F1805F05D11B699F
:10052000002B0CBF7F243F24DFE70024DDE700BF62
:100530008415002070B505460C464668284600F034
:100540006DFD0028FAD08423C4F308045E43024BF7
:100550009B599C6270BD00BF841500200D4A08B5F0
:10056000836E93420FD023F4806206D80A4B9A42DE
:100570000DD1BDE8084002F0C3BA08498A4202D052
:10058000074A934203D1BDE8084002F0C9BA0548C2
:1005900004F022FD003001400038004000500140CE
:1005A00000340140802F250043692DE9F041DF0729
:1005B00004460D4629D587683449826807EA010C4C
:1005C0008368334EB943334802EA060203EA000364
:1005D00001D10121A160B24202D14FF48071A1602A
:1005E000834202D14FF48031A16028498C4505D067
:1005F00027498A4202D0274A934206D1264B01213D
:10060000264A1B6852F825009847E26863699607F6
:100610000CD098070AD563690021204A23F0020311
:1006200052F8250063611C4B1B689847A1696269F9
:10063000890763690AD5970508D51E0406D5164BA8
:100640000521164A1B6852F825009847A16962697E
:100650004807636902D46369BDE8F0815105FAD5A2
:100660001A040BD463691B04F6D50B4B02210B4A09
:100670001B6852F82500BDE8F0411847074A0721DA
:10068000054B52F825001B689847EBE70300000470
:100690000003000800000310A4190020A81900207E
:1006A00000210148FFF780BF00640040FFF7F8BF5A
:1006B000FFF7F6BF01210148FFF776BF0068004051
:1006C000FFF7F8BFFFF7F6BF02210148FFF76CBF45
:1006D00000340040FFF7F8BFFFF7F6BF91FAA1F32F
:1006E000B3FA83F391FAA1F130B55B000325B1FAB7
:1006F00081F1046805FA03F3490024EA03038A4000
:100700001A43026030BD000000B5454B8DB00A2889
:1007100000F28380DFE800F006131E29343F4A55BB
:10072000606B76001A6B3F4842F001021A631B6B44
:1007300003F001030193019B0DB05DF804FB1A6BFC
:10074000394842F002021A631B6B03F00203029362
:10075000029BF1E71A6B354842F004021A631B6BE7
:1007600003F004030393039BE6E71A6B304842F05F
:1007700008021A631B6B03F008030493049BDBE776
:100780001A6B2C4842F010021A631B6B03F0100323
:100790000593059BD0E71A6B274842F020021A63A5
:1007A0001B6B03F020030693069BC5E71A6B2348D7
:1007B00042F040021A631B6B03F040030793079B50
:1007C000BAE71A6B1E4842F080021A631B6B03F0F3
:1007D00080030893089BAFE71A6B1A4842F48072B3
:1007E0001A631B6B03F480730993099BA4E71A6BCC
:1007F000154842F400721A631B6B03F400730A93EA
:100800000A9B99E71A6B114842F480621A631B6BCA
:1008100003F480630B930B9B8EE70D4804F0DCFB25
:10082000003802400000024000040240000802407C
:10083000000C024000100240001402400018024068
:10084000001C024000200240002402400028024018
:100850009A2F2500431C10B5044604D1772206497F
:10086000064804F07BF94FF4707104F00F0400F0B7
:10087000D9FA0120A04010BD083025001330250012
:100880004B1C70B504460E46018216D0C1F303100E
:10089000FFF73AFF05463046FFF7DCFF238A074A99
:1008A00003F00F036561206052F82330A36105F166
:1008B000100318356360C4E9025570BD5C4925001A
:1008C000B0F9100000F042BB0A46D0E905010AB9B0
:1008D000FFF704BF0122FBE708B501F0B1FA0020E1
:1008E00008BD000038B504F009FA124B124913484C
:1008F0005C6A02680B889B1A2344B3F5803F17D3C8
:100900004FF47A75B3FBF5F205FB123305E00132C3
:10091000A3F57A73B3F57A7FF9D204609BB2084CE1
:100920000B8023681344236004F0FEF9206838BD6F
:100930000022EFE7000C0040B4190020BC19002091
:10094000B81900200048704754492500024BD86967
:10095000DA698242FBD170470024004008B504F0F8
:10096000CDF9084B01221A700022074B1A704FF084
:100970000052064BC3F808219A60BDE8084004F015
:10098000D3B900BFD0190020CF19002000E100E04A
:1009900010B504F0B3F9134B1A7842B9124A126831
:1009A00011680907FCD50821516001221A700F4C0B
:1009B00023781BB104F096FC0023237000230C4A1B
:1009C00013700C4A13704FF000520B4BC3F8882081
:1009D000BFF34F8FBFF36F8FBDE81040C3F888217E
:1009E00004F0A2B9CC190020D4190020C4190020A9
:1009F000CF190020D019002000E100E0404B70B575
:100A00001C68B2B024B132B0BDE87040FFF7C0BF7F
:100A100001258C2221460FA81D603EF011FF3022D7
:100A2000214602A83EF00CFF042303954FF48025D5
:100A300001934FF0407301A80E952B9301F0D0FD68
:100A400010B1304804F0C8FA0EA802F0E7F808B177
:100A50002D48F7E72D4B4FF6FF762D4C1A6C42F4DC
:100A600000721A641A6C02F400720092009A1A6AF8
:100A700042F400721A621A6A22F400721A62A3F532
:100A8000053384F82E00E061A0622360C4E9010010
:100A9000C4E90300C4E908002046C4E9056501F083
:100AA000B1FC054608B11B48CCE71B4B1B4A9B68B1
:100AB000C3F8B421BFF34F8F194B314620461A6853
:100AC00042F400021A609A6842F400029A602368B5
:100AD0009A6842F001029A609A6842F008029A60AD
:100AE00001F0E2FC236808225A605D611A6812076F
:100AF000FCD508225A6001220A4B1A7032B070BD30
:100B0000C0190020263025003F3025000038024063
:100B1000D41900206030250000ED00E0190C200001
:100B2000003C0140CC19002008B504F0E7F8064B62
:100B300001221B685A604FF00052044BC3F8882111
:100B4000BDE8084004F0F0B8D419002000E100E04E
:100B500070B5044604F0D2F8FFF7F8FE264B0546C0
:100B60001C60264A4FF000519160254E3278F2B950
:100B7000611F4FF6F572914222490FD94FF6FA7272
:100B800090420BD906340122A4B20A701C601E4B9D
:100B900001221A70BDE8704004F0C6B800220A7045
:100BA0001B68AB42194B28BF01221A70EFE7FFF711
:100BB000BBFF00235A19013392B2A24204BF05348D
:100BC000A4B2052BF6D1124BAC421B6811D24FF6E2
:100BD000FA7295420DD84FF0FF325A6100230D4C46
:100BE00033702378002BD5D104F066FB01232370EA
:100BF000D0E75C61F2E700BFC819002000E100E027
:100C0000CC190020CD190020CF190020CE190020CA
:100C1000D4190020C419002070B504F06FF82E4BD1
:100C20002E4C1A7832B100212268197001235360CA
:100C300003F030FA23681A68D50706D59A68D007FA
:100C400003D501225A6003F025FA23681A681107B8
:100C500024D59A68120721D50822214C5A60012216
:100C6000204B1A7023781BB104F03CFB0023237047
:100C70001D4C237893B11D4D1D492B7803F0FF06C1
:100C8000D3B1FFF763FE06300B6880B298420DD3F4
:100C9000FFF764FE00232B7000232370154B4FF4E5
:100CA0000002BDE870405A6104F03EB8086806389A
:100CB00080B2FFF74DFFEDE70F4D2B7843B1FFF703
:100CC00045FE0B68984203D3FFF748FE2E70E3E71A
:100CD0000868FFF73DFFDFE7D0190020D419002096
:100CE000C4190020CC190020CF190020CD190020F4
:100CF000C8190020003C0140CE190020FFF748BE73
:100D0000704700002F4B5A69900370B515D45A698B
:100D100012F4003211D1BFF34F8FBFF36F8FC3F8BE
:100D20005022BFF34F8FBFF36F8F5A6942F40032E6
:100D30005A61BFF34F8FBFF36F8F224A5369D903B4
:100D400027D4536913F4803323D1C2F88430BFF31E
:100D50004F8FD2F8803043F6E074C3F3C900C3F379
:100D60004E335B0103EA0406014646EA8175013908
:100D7000C2F86052F9D2203B13F1200FF2D1BFF339
:100D80004F8F536943F480335361BFF34F8FBFF3E9
:100D90006F8F0D4C01F0AAF901F0E2F9236F9B0768
:100DA00005D401F0A9FB236F23F018032367FFF795
:100DB00053FB01F09BF9FFF7A3FF044B01221A60DC
:100DC00070BD00BF00ED00E000380240041A0020B2
:100DD00091FAA1F3B3FA83F391FAA1F130B55B0074
:100DE0000325B1FA81F1846805FA03F3490024EA86
:100DF00003038A401A43826030BD91FAA1F3B3FA2B
:100E000083F391FAA1F130B55B000325B1FA81F1CA
:100E1000C46805FA03F3490024EA03038A401A432D
:100E2000C26030BDB0F1FF3F2DE9F84380460E4669
:100E300000F0838000F00F02C1F38319404BC0F330
:100E4000031001F0070753F82250FFF75DFCB9F1DA
:100E50000F0F044629460CBF03224A46FFF7B8FF8E
:100E6000032F61D8DFE807F065672F02032395FAA7
:100E7000A5F2B2FA82F203202168013F5200012F4D
:100E800000FA02F221EA020195FAA5F2B2FA82F220
:100E90004FEA420203FA02F343EA0103236005D852
:100EA000636832074CBF2B43AB436360C6F3011248
:100EB000012A02D0022A18BF002229462046BDE896
:100EC000F843FFF79ABF18F0080FC6F3832217D034
:100ED0002B0A4FF00F0C93FAA3F1B1FA81F1406A9B
:100EE00093FAA3F38900B3FA83F30CFA01F19B00A0
:100EF00020EA010102FA03F30B4363620223B6E71F
:100F000095FAA5F3B3FA83F3016A0F209B0000FA68
:100F100003F321EA030195FAA5F3B3FA83F39B00E7
:100F20009A400A432262E9E7D5220649064803F0BF
:100F300015FE00239BE7012399E7BDE8F88300BF76
:100F40005C492500C33025002F3D250038B5431CE2
:100F50000D4634D000F00F02194BC0F3031053F8C4
:100F60002240FFF7D1FB94FAA4F2B2FA82F20323F3
:100F700001685200934094FAA4F20B406AB1B2FAAD
:100F800082F25200D340013B012B06D8EB1E022B0C
:100F9000436894BF2343A3434360013D042D0CD811
:100FA000DFE805F00309030B090001222146BDE833
:100FB0003840FFF722BF0222F8E70022F6E738BDEB
:100FC0005C492500006800F001007047C069C0F36B
:100FD000801070470FB4074B1B6807B5064905AA78
:100FE000D86801923DF010FD03B05DF804EB04B049
:100FF000704700BFE00B0020CC30250084224368FE
:101000005343054AD358DA69120701D508221A62F8
:10101000D869C0F3401070478415002043688422CB
:101020005343034AD358D869C0F3C010704700BF78
:101030008415002030B403464468842216491D6894
:10104000624350188D509A684260DA6882601A696B
:10105000C2605A6902611A6A82610022A0F85220B5
:10106000C261A0F85020A0F85A20A0F85820C0E98A
:101070000822B3F91A2001320CD0B3F918305A1CE7
:101080000CBF04230C23842202FB041130BC4B61EF
:1010900002F09CBC0823F6E78415002010B581609F
:1010A0000C46FFF7C7FF28B121460348BDE81040B2
:1010B000FFF790BF10BD00BFCC302500184B984201
:1010C0001FD0A3F54C4398421DD003F5806398428E
:1010D0001BD003F58063984219D003F580639842D2
:1010E00017D003F54443984215D0A3F51C4398420A
:1010F00013D003F5806398420CBF07204FF0FF30F8
:10110000704700207047012070470220704703207D
:10111000704704207047052070470620704700BFC5
:10112000001001402DE9F0470F46164688B06F4980
:101130000446384602F0DCFF82466D49304602F034
:10114000D7FF0146504602F0AFFF684905463846D2
:1011500002F0E4FF66498146304602F0DFFF382F97
:1011600080460AD0392E08D06049382002F0C0FFEE
:1011700050450CD15F4803F02FFF4FF0010A691C66
:10118000256007D141225C495C4803F0E7FC4FF041
:10119000000AF4E75A4B9D4219D103F594335A6C77
:1011A00042F010025A645B6C03F010030093009B42
:1011B000544B9D4219D103F592335A6C42F02002F0
:1011C0005A645B6C03F020030593059B47E04E4B8C
:1011D0009D4219D103F5FA331A6C42F400321A64B5
:1011E0001B6C03F400330193019B484B9D4219D1C2
:1011F00003F5E0331A6C42F080421A641B6C03F072
:1012000080430693069B2AE0414B9D4219D103F58A
:10121000F8331A6C42F480221A641B6C03F48023A6
:101220000293029B3B4B9D4219D103F5DE331A6CAE
:1012300042F000421A641B6C03F000430793079BC3
:101240000DE0354B9D4214D103F5F6331A6C42F490
:1012500000221A641B6C03F400230393039B2846AB
:10126000FFF72CFF6060013012D1A02222492B48E9
:101270008BE72B4B9D429BD103F5F4331A6C42F460
:1012800080121A641B6C03F480130493049BE6E73A
:1012900049463846FFF7C6FD01213846FFF756FE9E
:1012A00041463046FFF7BEFD30460121FFF74EFEB6
:1012B00000234FF4E1322046236227836683C4E98A
:1012C0000223C4E90433FFF7B5FEBAF1000F0AD0D8
:1012D000144B0122214614481A604C2208B0BDE884
:1012E000F04741F0CDBC08B0BDE8F087642E250082
:1012F0005C2D2500F630250078312500853125004C
:1013000000100140001401400044004000780040FB
:1013100000480040007C0040004C0040A131250006
:1013200000500040541A0020081A002008B529482F
:10133000FFF748FE034620B12648FFF747FE80F03E
:1013400001032548FFF73EFE28B12348FFF73EFE84
:1013500080F0010003432148FFF734FE28B11F4805
:10136000FFF734FE80F0010003431D48FFF72AFE1B
:1013700028B11B48FFF72AFE80F0010003431948FB
:10138000FFF720FE28B11748FFF720FE80F001008C
:1013900003431548FFF716FE28B11348FFF716FE62
:1013A00080F0010003431148FFF70CFE28B10F48FD
:1013B000FFF70CFE80F0010003430D48FFF702FE2B
:1013C00028B10B48FFF702FE80F0010003431846E6
:1013D00008BD00BF0010014000440040004800402C
:1013E000004C0040005000400014014000780040D4
:1013F000007C0040034A516A536A5B1A8342FBD364
:10140000704700BF000C004010B5002486B01422C5
:10141000214601A800943EF013FA694601A801F0A4
:10142000DFFB0F23009901A8019305940494CDE9F3
:10143000024401F0C7FA10B1024803F0CDFD06B036
:1014400010BD00BFB331250000B58FB0002134229C
:1014500001A83EF0F5F90F4B01A81A6C42F080523A
:101460001A641B6C03F080530093009B01F068FB2F
:101470000223012101A801931023CDE904130023C5
:10148000079301F0ADF810B1034803F0A5FD0FB0CC
:101490005DF804FB00380240DB31250008B503F09D
:1014A0002DFC064B0121186810F0010018BF0846FA
:1014B00001F02AF8BDE8084003F036BC0070004097
:1014C00038B5FFF733FF0446D8B903F017FC0D4DCC
:1014D00000F050FD0121084601F02AF82C60FFF7CA
:1014E000B3FFFFF791FFFEF7B7FF4FF4FA70FFF776
:1014F00081FF00F057FD01232B60BDE8384003F069
:1015000013BC38BD041A0020B0F5E06F2CD00FD802
:10151000B0F5A06F28D008D8B0F5407F24D0B0F542
:10152000806018BF4FF0FF307047B0F5C060F8E73B
:10153000B0F5406F1AD00FD8B0F5206F16D008D88C
:1015400020F48070B0F5006F14BF4FF0FF30012021
:101550007047B0F5306FF7E7B0F5606F06D020F454
:101560000070B0F5506FEFE7002070470120704722
:1015700013B5044601F039FFA36EDA680192019AAF
:101580009B680193019B02B010BD0000014B1868DD
:1015900001F09EBE6C1A0020014B186801F098BE45
:1015A000681A0020014B186801F092BE641A0020EE
:1015B000014B186801F08CBE601A0020014B1868BE
:1015C00001F086BE5C1A0020014B186801F080BE55
:1015D000581A00200268136823F0400310B5136006
:1015E00000230446436201F0CAFD10B1074803F02E
:1015F000F3FC20466462FFF7BBFFA36823B92268AF
:10160000136843F04003136010BD00BF2D33250065
:101610002DE9F0410F4614461149804602F068FD5D
:1016200010490546384602F063FD0F49064620463C
:1016300002F05EFD0137044605D101462846BDE8AB
:10164000F04102F031BDB8F1FF3F02D10146304612
:10165000F5E73146284602F027FD2146EFE700BFB7
:10166000842C2500DC2B2500102B25002DE9F04FC4
:101670000F4689B015461E460446A5493846BDF9B1
:10168000488002F035FDA3498246284602F030FD2D
:10169000A1498346304602F02BFDA0490090404608
:1016A00002F026FD59468146504602F0FDFC824676
:1016B0004946009802F0F8FC0146504602F0F4FC5E
:1016C00093490190384602F029FD92498346284605
:1016D00002F024FD90498246304602F01FFD8F49FA
:1016E0008146404602F01AFD019B0090581CA366FB
:1016F00005D140F20D128A498A4803F02FFA0022E0
:10170000E267894A934237D102F58432516A41F443
:1017100080515162516A21F480515162516C41F4FF
:1017200080515164526C02F480520292029A232238
:1017300084F86420012284F880207C4A14607C4A6A
:10174000934236D17B4B5A6A42F400125A625A6A6B
:1017500022F400125A625A6C42F400125A645B6C12
:1017600003F400130793079B562384F86430062381
:1017700084F88030704B1BE0704A93426CD16D4B03
:101780001A6A42F480421A621A6A22F480421A6289
:101790001A6C42F480421A641B6C03F48043039376
:1017A000039B242384F86430022384F88030644B44
:1017B0001C6059463846FFF735FB02213846FFF7D3
:1017C000C5FB51462846FFF72DFB00212846FFF7B1
:1017D000BDFB49463046FFF725FB00213046FFF7A9
:1017E000B5FBB8F1FF3FA4F86C50A4F86E70A4F8F4
:1017F0007060A4F8728000F0878000994046FFF77F
:1018000011FB00214046FFF7A1FB4FF48022082383
:101810006363691CA36E4D42A26123604FF482731F
:101820004D41072263603823ED03B4F97000E36192
:1018300000230221A560A3622362C4E90B234FF4B5
:10184000E062C4E90433E260FFF780FB204609B0A0
:10185000BDE8F04FFFF7BEBE3A4A934219D1354B6F
:101860001A6A42F400421A621A6A22F400421A62A8
:101870001A6C42F400421A641B6C03F40043049394
:10188000049B332384F86430032384F880302E4B88
:101890008EE72E4A934219D1264B5A6A42F40052DF
:1018A0005A625A6A22F400525A625A6C42F4005246
:1018B0005A645B6C03F400530593059B542384F82E
:1018C0006430042384F88030214B71E7214A93422D
:1018D0007FF435AF174B5A6A42F480125A625A6A43
:1018E00022F480125A625A6C42F480125A645B6C81
:1018F00003F480130693069B552384F86430052374
:1019000084F88030144B53E74FF4007200237FE7D4
:10191000842C2500DC2B2500102B2500502A2500C7
:101920004D32250043332500003001406C1A002061
:101930000054014000380240581A0020003800408E
:10194000681A0020003C0040641A00200034014066
:10195000601A0020005001405C1A002090F881308D
:1019600010B504465BB190F88000514B013800EB94
:101970004000184400F02EFB002384F8813094F8D6
:1019800082305BB194F880004A4B013800EB400094
:10199000184400F01FFB002384F8823022682046A0
:1019A000136823F04003136001F07BFCA36E424AEE
:1019B00093421DD102F58432516A41F48051516243
:1019C000516A21F480515162516C21F4805151646B
:1019D0003A4A93421CD13A4B5A6A42F400125A6274
:1019E0005A6A22F400125A625A6C22F400124CE035
:1019F000344A93422AD1324B1A6A42F480421A6224
:101A00001A6A22F480421A621A6C22F480421A6422
:101A100040F2C331B4F96C00FFF704FA40F2C3316D
:101A2000B4F96E00FFF7FEF940F2C331B4F970006B
:101A3000FFF7F8F9A369B3F5007F38D0B4F9720065
:101A400040F2C331BDE81040FFF7ECB91E4A9342A3
:101A50000CD11B4B1A6A42F400421A621A6A22F431
:101A600000421A621A6C22F40042D0E7174A9342ED
:101A70000DD1134B5A6A42F400525A625A6A22F448
:101A800000525A625A6C22F400525A64C0E7104A5B
:101A900093429DD10A4B5A6A42F480125A625A6AA2
:101AA00022F480125A625A6C22F48012EDE710BDC3
:101AB0000A4A2500F8492500003001400054014041
:101AC0000038024000380040003C00400034014033
:101AD0000050014010B50446081F0C2896BF0902AB
:101AE0004FF4E061A1F58071012A20D0022A20D0B4
:101AF00012B3022001226261A269B2F5007FC4E93B
:101B000003102CD0D3B10023A361A2680023B4F941
:101B10006E000021B2F5004F636008BFA360FFF7BD
:101B200015FA0221B4F96C00FFF710FA09E0002061
:101B3000E1E710460022DEE71046DCE74FF48023A1
:101B4000A3612369B4F97000002B14BF01210221A5
:101B5000FFF7FCF92046BDE81040FFF73BBD002B26
:101B6000EFD0D2E710B50446FEF7F8FCE369382B56
:101B700003D8064AD35CFF2B05D14FF46B7204499E
:101B8000044802F0EBFF0133184110BD9C492500C9
:101B90004D3225005E3325002DE9F84F0446C0681C
:101BA000FFF7B2FC471C15469846DDF8289006461C
:101BB00005D140F2F9423149314802F0CFFFA26E1F
:101BC00001271368874023F040031360A5B1136811
:101BD00023F4444343F440431360136843F0400349
:101BE00013600023AB42A26E1EDB93681906FCD47F
:101BF000136823F040031360B9F1000F10D0A26EF8
:101C000020464FF0000A136823F4444343F4004392
:101C10001360FFF7A7FF1B4B93FBF0FBCA450FDBDD
:101C200005EB0900BDE8F88F90688007FCD5012E10
:101C300003D1C85A90813B44D4E7C85C1073FAE7DB
:101C400003F05CF8A26E5846136843F0400313603B
:101C500003F06EFEA26E136823F04003136003F0DE
:101C600063F8A36E9A68D207FCD5DB68012E0CBF1F
:101C700028F80A3008F80A30BA44CFE74D32250078
:101C80008A32250000CA9A3B38B504460D46FEF755
:101C900065FC002200EBD0735B10AB4203DD013228
:101CA000082A09D10722064B204653F82230E36167
:101CB000BDE83840FFF78EBC03EBD3735B10ECE755
:101CC000D84925001FB5836802460391B3F5004F3C
:101CD0000BD10023012203A90093FFF75DFF013818
:101CE00018BF012005B05DF804FBC068FFF70CFCCD
:101CF000431C05D140F264521049114802F02EFFF6
:101D0000936E5968A0B941F4805159609968890768
:101D1000FCD5012803990ED189B29981936E9A68F6
:101D2000D207FCD50128D8680CBF80B2C0B2D9E771
:101D300021F48051E9E7C9B21973EFE74D3225006C
:101D40008A3225002DE9F04F85B00546C068164659
:101D50000391FFF7D9FB044642FA00F099469DF83B
:101D60003CB000FA04FA924505D040F28A52254967
:101D7000254802F0F3FE0E9840FA04F7A740874288
:101D800004D040F28B521F492048F2E70E9890424F
:101D9000B8BF10468046A86848BB0BEB0B2A01274A
:101DA000012C07FA04F708BF4BEA0A2A4FF0000B90
:101DB000C34503DB404605B0BDE8F08FB34514DAF8
:101DC000039B012C0CBF33F80B1013F80B102846A3
:101DD000FFF778FF0E9B9B4505DA012C0CBF29F815
:101DE0000B0009F80B00BB44E2E75146EFE7284639
:101DF0000097FFF7D1FE0AEB0703834218BF4FF0AD
:101E00000008D7E74D32250074332500A3332500A1
:101E1000074B084A13601A69910707D5DA689207D9
:101E200004D56FF002021A6102F088BB704700BF50
:101E3000000C00407C1A0020004870471C4A250016
:101E400030B589B0244C01A903A800F0C9FE00F008
:101E500057FE224B01901A6C42F008021A641A6C69
:101E600002F008020292029A1A6A42F008021A620A
:101E70001A6A22F008021A62A3F50B33069A23604D
:101E80004FF0FF33E360164B0ABBB0FBF3F3581E71
:101E90000025606010482561A560C4E9055501F082
:101EA00007FB104B104A9B68C3F80821BFF34F8F04
:101EB0000E4B4FF480225A600748294601F036FB4A
:101EC0002268D36823F00203D36009B030BD40001C
:101ED000B0FBF3F00138DBE77C1A00200038024049
:101EE00040420F0000ED00E0111E200000E100E084
:101EF000044800210268D36823F00203D36001F094
:101F000015BB00BF7C1A0020014B586A704700BF08
:101F1000000C0040054B6FF002021B6858631A6109
:101F2000DA6842F00202DA60704700BF7C1A0020D3
:101F3000064B6FF002021B681A615A6942F00202F6
:101F40005A61DA6842F00202DA6070477C1A0020B7
:101F5000034B1A68D36823F00203D360704700BFB5
:101F60007C1A0020024B6FF002021B681A61704756
:101F70007C1A0020064B074A1B68596A11605A6B8D
:101F8000054B1A60054BDA68054B1A60704700BFB5
:101F90007C1A0020781A0020741A0020000C0040DF
:101FA000701A0020064B074A1B6812685A62064ADC
:101FB00012685A63054B1A68054BDA60704700BF18
:101FC0007C1A0020781A0020741A0020701A002051
:101FD000000C004070B5037804464578013B0B4E79
:101FE00005EBC30356F8230000F0F8F82378013B13
:101FF00005EBC30356F8230038F020FA2378013BA1
:1020000005EBC305002346F8253070BDC81A002033
:10201000014B186800F01EB9C81A0020014B58681F
:1020200000F018B9C81A0020014B986800F012B9E6
:10203000C81A0020014BD86800F00CB9C81A00205B
:10204000014B186900F006B9C81A0020014B586905
:1020500000F000B9C81A0020014B986900F0FAB8E6
:10206000C81A0020014BD86900F0F4B8C81A002043
:10207000014B186A00F0EEB8C81A0020014B586AEC
:1020800000F0E8B8C81A0020014B986A00F0E2B8E6
:10209000C81A0020014BD86A00F0DCB8C81A00202A
:1020A000014B186B00F0D6B8C81A0020014B586BD2
:1020B00000F0D0B8C81A0020014B986B00F0CAB8E5
:1020C000C81A0020014BD86B00F0C4B8C81A002011
:1020D000044B054A9A60D3F8882042F47002C3F892
:1020E0008820704700ED00E000002000164B9A6841
:1020F00002F00C02042A22D0082A22D159685A6818
:1021000049025B6802F03F0248BF1049C3F38813DD
:1021100058BF0F49B1FBF2F253430B4A5268C2F366
:10212000014201325200B3FBF2F3074A09499268B7
:10213000C2F303128A5CD340074A13607047034B13
:10214000F3E7034BF1E700BF0038024000127A00CA
:102150000024F4002C4A2500FC02002070470000F7
:1021600008B5094B03201A6842F400721A601A6815
:1021700042F480721A6000F009F80F20FEF7ACFB01
:10218000FFF7ECFF002008BD003C024007490302B6
:10219000CA6803F4E06322F4E0621204120C1343F1
:1021A00043F0BF6343F40033CB60704700ED00E0C1
:1021B000036802461820D9B21039B1FBF0F010B50F
:1021C000054C5F29205CD06523F47F7020F003006C
:1021D00088BF0430906510BD3C4A250038B50546DF
:1021E00020B390F83530022BDCB21DD003680024F8
:1021F0001A6822F001021A6021221C605C609C6057
:10220000DC601C615A61FFF7D3FFEA6D3F23934006
:1022100083606C6585F8344085F83540C5E90F4426
:10222000C5E91144C5E91344204638BD0124FBE744
:1022300090F83530022B03D080234365012070478E
:102240000268052380F835300020136823F001036D
:10225000136070470023F7B5019308225B4B0446D7
:10226000856D1F68C36D2E689A4032420CD001689C
:102270000868400708D5086820F004000860AA60D4
:10228000626D42F00102626501229A40324208D03A
:1022900021684969090604D5AA60626D42F002020C
:1022A000626504229A40324208D021680968880792
:1022B00004D5AA60626D42F00402626510229A4061
:1022C000324210D02368196809070CD5AA601A6831
:1022D000500337D51B68190301D4236C00E0A36CAD
:1022E0000BB120469847E16D20228A4032423AD015
:1022F00023681868C60636D5AA6094F83520052AE2
:102300001A6827D122F016021A605A6922F0800258
:102310005A61226C0AB9A26C1AB11A6822F008023A
:102320001A603F238B40AB60002384F834300123D4
:1023300084F83530236D002B45D0204603B0BDE82E
:10234000F04018471A68D205C7D41A6822F008026C
:102350001A60C2E7500327D51B68190331D4636C98
:102360000BB120469847636D6BB3636DDA0719D5DF
:102370004FF416532268B7FBF3F7052384F8353082
:10238000136823F001031360019B0133BB420193E7
:1023900002D81368DB07F7D4002384F83430012314
:1023A00084F83530E36CC6E71A6812F4807208D1FD
:1023B000196821F010011960012384F8342084F891
:1023C0003530E36BCCE703B0F0BD00BFFC0200206A
:1023D0000A4B44F620621B68B3FBF2F34FF47A72A7
:1023E00010B5534304680020013B226808BF032056
:1023F00031EA020201D0002BF6D110BDFC02002010
:1024000070470000F8B50446002848D090F82E30F8
:1024100003F0FF021BB980F82D20FFF7F1FF616880
:1024200002232068012984F82E30A56AC36802D0EF
:10243000B5F5000F01D123F01E034FF6FF76626958
:10244000184FB242A6681CBF23F4604323F0C003B8
:102450001F4041EA05033343266A3343666A334328
:102460003B43A9B9E169266931430B43B5F5000F38
:1024700010D04FF6FF718A4204D0A1690A43E16986
:102480000A431343C3600123002084F82E30F8BDB3
:102490000129EBD1D4E9031529430B43E9E70120D6
:1024A000F5E700BFFEF119FF022238B580F82E20B3
:1024B00004460B46D0E90052012A07D0826AB2F5E1
:1024C000000F03D1EA6822F46062EA602A691021F1
:1024D000204642F001022A616960AB61FFF778FF94
:1024E000032807D02B69002043F004032B6101234C
:1024F00084F82E3038BD0000024A136843F480731C
:102500001360704700700040084A136923F0040309
:102510001361BFF34F8FBFF36F8F012901D130BF1C
:10252000704740BF20BF20BF704700BF00ED00E0F4
:102530000D4A136823F00303034313600B4B1A691E
:1025400042F004021A61BFF34F8FBFF36F8F01296E
:1025500005D130BF1A6922F004021A61704740BFEA
:1025600020BF20BFF6E700BF0070004000ED00E094
:10257000194B37B51A6C194C42F080521A641B6C17
:1025800003F080530193019B236843F4803323605D
:10259000FEF7A8F905466368DA030CD523680F4DEA
:1025A00043F400332360FEF79DF904466B689B03F8
:1025B0000AD5002006E0FEF795F9401BB0F57A7FBA
:1025C000E9D9032003B030BDFEF78CF9001BB0F54C
:1025D0007A7FEBD9F5E700BF003802400070004079
:1025E0002DE9F341044618B9012002B0BDE8F0819D
:1025F0000368DE0710D423689D075ED4236819079B
:1026000000F1A38023685A0700F1C480A269002A60
:1026100040F02E810020E8E7934B9A6802F00C020C
:10262000042A07D09A6802F00C02082A0AD15B68D3
:10263000590207D58C4B1B689A03DCD56368002BC5
:10264000D9D1D1E76368884DB3F5803F11D12B68AC
:1026500043F480332B60FEF745F9834E054633681B
:102660009B03C8D4FEF73EF9401B6428F7D903202A
:10267000BBE79BB92B6823F480332B602B6823F4D2
:1026800080232B60FEF72EF906462B689F03B2D5F8
:10269000FEF728F9801B6428F7D9E8E7B3F5A02FE7
:1026A0002B6803D143F480232B60D0E723F48033DD
:1026B0002B602B6823F48023CCE76B4B9A6812F0D5
:1026C0000C0F07D09A6802F00C02082A11D15B683F
:1026D0005D020ED4644A1368990702D5E368012BA2
:1026E00082D11368216923F0F80343EAC103136020
:1026F00084E7E3685C4DBBB12B6843F001032B60BA
:10270000FEF7F0F806462B689B0707D52B68226971
:1027100023F0F80343EAC2032B606FE7FEF7E2F809
:10272000801B0228EFD9A2E72B6823F001032B605E
:10273000FEF7D8F806462B689F077FF55FAFFEF7D8
:10274000D1F8801B0228F6D991E76369464D83B121
:102750006B6F43F001036B67FEF7C4F806466B6FBF
:102760009B073FF54FAFFEF7BDF8801B0228F6D957
:102770007DE76B6F23F001036B67FEF7B3F8064646
:102780006B6F9F077FF53EAFFEF7ACF8801B02280A
:10279000F6D96CE7344B1A6CD50027D41A6C012794
:1027A00042F080521A641B6C03F080530193019B2A
:1027B0002E4D2B68D8051BD5A3682B4D012B27D197
:1027C0002B6F43F001032B6741F28838FEF78AF83C
:1027D000254E0546336F9A073FD5002F3FF416AFBD
:1027E000214A136C23F0805313640FE70027DFE7BF
:1027F0002B6843F480732B60FEF774F806462B6851
:10280000D905D9D4FEF76EF8801B6428F7D92EE7D6
:10281000ABB92B6F41F2883823F001032B672B6F84
:1028200023F004032B67FEF75DF806462B6F9B072A
:10283000D3D5FEF757F8801B4045F7D917E7052B8E
:102840002B6F03D143F004032B67B9E723F0010397
:102850002B672B6F23F00403B5E7FEF743F8401B0B
:102860004045B7D903E700BF003802400070004080
:102870003C4DAB6803F00C03082B42D02B68022AB6
:1028800023F080732B602FD1FEF72CF806462B68BF
:10289000990123D4D4E907321343626A43EA8213CD
:1028A000E26A43EA0263226B43EA0273A26A5208B5
:1028B000013A43EA02436B602B6843F080732B605C
:1028C000FEF710F8274D04462B689A013FF5A2AE9B
:1028D000FEF708F8001B0228F6D9C8E6FEF702F852
:1028E000801B0228D3D9C2E6FDF7FCFF04462B6803
:1028F0009B017FF58FAEFDF7F5FF001B0228F6D98F
:10290000B5E6012A6B683FF46FAE03F48002E1691B
:102910008A427FF469AE03F03F02216A8A427FF463
:1029200063AE47F6C072616A1A40B2EB811F7FF452
:102930005BAEA26A03F440315208013AB1EB024F98
:102940007FF452AE03F07062E16AB2EB016F7FF484
:102950004BAE226B03F0E043B3EB027F14BF0120C8
:10296000002042E600380240134908B58B6803F0A6
:102970000C03042B1BD0082B1BD14A684B684968F9
:1029800002F03F0213F48003C1F388111ABF0B4811
:1029900000230B48A1FB00014EF094FE064B5B6840
:1029A000C3F3014301335B00B0FBF3F008BD034800
:1029B000FCE70348FAE700BF0038024000127A0043
:1029C0000024F4002DE9F0410D46044610B9012021
:1029D000BDE8F081454A136803F00F038B4228D30A
:1029E00021688F0730D4C80743D4404A136803F0E6
:1029F0000F03AB4266D8226851076FD4130707D57F
:102A00003B4A2169936823F4604343EAC10393601E
:102A1000FFF7AAFF364B374A9B68C3F30313D35C17
:102A2000D840354B1860354B1868FDF755FF00202E
:102A3000CEE7136823F00F030B431360136803F012
:102A40000F038B42C3D1CBE711F0040F284B03D007
:102A50009A6842F4E0529A600E0703D59A6842F4ED
:102A600060429A609A68A06822F0F00202439A607D
:102A7000B9E761681E4B01291A681BD112F4003FA7
:102A8000A5D09A6841F28838194F22F003020A4310
:102A90009A60FDF727FF0646BB68626803F00C03E7
:102AA000B3EB820FA1D0FDF71DFF801B4045F3D98A
:102AB00003208DE7022902D112F0007FE0E712F037
:102AC000020FDDE7136823F00F032B431360136835
:102AD00003F00F03AB427FF47AAF8CE70449E06860
:102AE0008B6823F4E05303438B6087E7003C02408C
:102AF000003802402C4A2500FC0200200003002080
:102B0000044B054A9B68C3F38223D35C034A1068D5
:102B1000D840704700380240244A2500FC020020BB
:102B2000044B054A9B68C3F34233D35C034A1068E5
:102B3000D840704700380240244A2500FC0200209B
:102B40000F230360254B1A68510341D41A6802F41D
:102B5000803242601A6802F00102C2601A68C2F351
:102B6000C40202611A6F520735D41B6F03F00103D0
:102B700083601A4B5A6F02F0010242611A6812F028
:102B8000807F0CBF0122022282615A6802F4800217
:102B9000C2615A6802F03F0202625A68C2F38812A8
:102BA00042625A6802F4403202F58032D20B8262ED
:102BB0005A68C2F30362C2624FF0E0425B6892FA65
:102BC000A2F203F0E043B2FA82F2D340036370470B
:102BD0004FF4A022BDE70523CAE700BF003802403A
:102BE0000F2303600B4B9A6802F0030242609A685D
:102BF00002F0F00282609A6802F4E052C2609B68C0
:102C0000DB0803F4E0530361034B1B6803F00F037D
:102C10000B60704700380240003C02402DE9F7434A
:102C20000268044612F001030BD0AF498B6823F40D
:102C300000038B60636B88681843B3FA83F35B0906
:102C4000886012F4002612D0A748E66BD0F88C10EA
:102C5000B6F5801F21F4401108BF012341EA0601A7
:102C600016BFB6FA86F600267609C0F88C10D00298
:102C700011D59D4D206CD5F88C10B0F5800F21F446
:102C8000400141EA0001C5F88C1000F0A98100283C
:102C900008BF46F00106C2F30067910647EA030742
:102CA00031D5914B914D1A6C42F080521A641B6CD5
:102CB00003F080530193019B2B6843F480732B60D6
:102CC000FDF710FE80462B68DA0540F18B81864DBA
:102CD0002B6F13F4407340F09081236B03F4407228
:102CE000B2F5407F804A40F0AE81916823F0704099
:102CF00021F4F81120F4407001439160C3F30B03F9
:102D0000116F0B4313672568E9060CD5764BD3F892
:102D10008C2022F08072C3F88C20D3F88C20A16B19
:102D20000A43C3F88C206A0408D56F4A616ED2F852
:102D3000903023F440330B43C2F890302B0408D575
:102D4000694AA16ED2F8903023F440230B43C2F8B5
:102D50009030E80308D5644AE16ED2F8903023F44D
:102D600040130B43C2F89030A90308D55E4A216F87
:102D7000D2F8903023F440030B43C2F890306A0637
:102D800008D5594A616CD2F8903023F003030B4305
:102D9000C2F890302B0608D5534AA16CD2F8903077
:102DA00023F00C030B43C2F89030E80508D54E4AD7
:102DB000E16CD2F8903023F030030B43C2F890302E
:102DC000A90508D5484A216DD2F8903023F0C003F8
:102DD0000B43C2F890306A0508D5434A616DD2F8BA
:102DE000903023F440730B43C2F890302B0508D584
:102DF0003D4AA16DD2F8903023F440630B43C2F8F2
:102E00009030E80408D5384AE16DD2F8903023F4C8
:102E100040530B43C2F89030A90408D5324A216EC2
:102E2000D2F8903023F440430B43C2F890306A024A
:102E300008D52D4AA16FD2F8903023F080630B4360
:102E4000C2F89030AB020DD52749E26FD1F890302F
:102E5000B2F1006F08BF46F0010623F00063134390
:102E6000C1F89030680308D51F4A616FD2F89030DE
:102E700023F040730B43C2F89030290209D51A4A57
:102E8000D4F88010D2F8903023F080530B43C2F86E
:102E900090306A0109D5144AD4F88410D2F89030E1
:102EA00023F000530B43C2F890302B0109D50E4A92
:102EB000D4F88810D2F88C3023F000730B43C2F89A
:102EC0008C30E80009D5084AD4F88C10D2F88C3040
:102ED00023F080630B43C2F88C30002F40F0B780A2
:102EE000A90100F1B48003E0003802400070004006
:102EF000C5F3C0053543012D70D19F4D2B6823F0DC
:102F000080532B60FDF7EEFC06462B689F0000F116
:102F1000248121680E0301D5E36B1BB1CD021DD5C1
:102F2000236CDBB9944AD2F88830D2F8880003F4D5
:102F3000403300F0E0400343606943EA8013A06936
:102F400043EA0063C2F88830D2F88C30A06A23F4D8
:102F5000F853013843EA0023C2F88C30880215D5B3
:102F6000E36FB3F1006F11D1834AD2F88830D2F801
:102F7000880003F0706300F0E0400343606943EAB7
:102F80008013206A43EA0043C2F888300A0719D543
:102F90007949D1F88820D1F8883002F0706203F4C2
:102FA00040331343626943EA8213E26943EA0273DE
:102FB000C1F88830D1F88C30E26A23F440331343EF
:102FC000C1F88C306C4C236843F080532360FDF7CC
:102FD00089FC054623689B0040F1C680002009E07B
:102FE000012358E6FDF77EFCA0EB080064287FF67D
:102FF0006AAE032003B0BDE8F083226B02F4407296
:1030000093423FF46AAE2B6F2A6F23F4407342F46D
:1030100080322A672A6F22F480322A672B672B6F4F
:10302000DB077FF55AAEFDF75DFC41F2883980463B
:103030002B6F98073FF551AEFDF754FCA0EB08004D
:103040004845F5D9D5E7916821F4F81155E64A4F7E
:103050003B6823F080633B60FDF744FC80463B689F
:103060001A0173D42268D30712D5636B83B9D7F8DA
:103070008430D7F8841003F4403301F070610B43BF
:10308000616843EA8113A16843EA0173C7F8843099
:10309000170303D5E36BB3F5801F05D0D0021ED50F
:1030A000236CB3F5800F1AD13349D1F88430D1F8AD
:1030B000840003F4403300F0E0400343606843EAD7
:1030C0008013E06843EA0063C1F88430D1F88C00D3
:1030D000636A20F01F00013B0343C1F88C30D1012B
:1030E00011D52549D1F88430D1F8840003F07063FC
:1030F00000F0E0400343606843EA8013206943EA3C
:103100000043C1F8843092010DD5236962681B0425
:1031100043EA8213E26843EA0263A26843EA027365
:10312000154AC2F88430144F3B6843F080633B601B
:10313000FDF7D8FB80463B681B013FF5D9AEFDF794
:10314000D1FBA0EB08006428F5D952E7FDF7CAFBD4
:10315000A0EB0800642882D94BE7FDF7C3FB801B76
:1031600064287FF6D2AE44E7FDF7BCFB401B642821
:103170007FF630AF3DE700BF003802407047F8B53A
:103180000446002800F08A80436A002B57D1426829
:10319000B2F5827F00D0C36194F85D3003F0FF0286
:1031A00023B9204684F85C20FFF7E8FF0223226859
:1031B000E06884F85D301368B0F5E06F23F04003F9
:1031C00013604FF000033ED91D46B0F5706F18BF75
:1031D000A362A768636807F40447A16903F48273D4
:1031E000A66A3B432769B6F5005F07F0020743EA8A
:1031F0000703676907F0010743EA070301F4007753
:1032000043EA0703E76907F0380743EA0703276A39
:1032100007F0800743EA070306F4005743EA070371
:10322000136015D1236B002B35D1B0F5E06F0DD9AC
:1032300002232363136843F40063136008E0002350
:10324000C0E90433A8E74FF48055C0E701232363A6
:10325000636A00F47060676B090C03F01003B6F545
:10326000005F07F0080701F0040143EA070343EA9F
:10327000000343EA010343EA0503536001D1A38D30
:103280001361D369002023F40063D3610123206616
:1032900084F85D30F8BD022BDAD1CBE70120F9E7E5
:1032A000704710B5044680B10268022380F85D3093
:1032B000136823F040031360FFF7F2FF002020663D
:1032C00084F85C0084F85D0010BD0120FCE77047C5
:1032D0000368F0B55D6885B09A68044656064FEA03
:1032E0009211C2F3801708D4D60706D56E0604D50E
:1032F000C36C05B0BDE8F0401847960704D5280612
:1033000002D5236D2046F4E741EA521102F48070A1
:10331000560901F00101014356D0AA0654D577B1F0
:1033200094F85D200021032A48D0226E42F0040266
:1033300022660091DA6800929A680092009AF1077A
:103340000CD5226E42F001022266002202929A6897
:1033500002921A6822F040021A60029A40B1226E6C
:1033600042F008022266002203929A680392039AAE
:10337000226E4AB35A6822F0E0025A60012284F8B1
:103380005D20AA0722D05A68A06D22F003025A607D
:1033900040B1104B0365FEF74BFF18B1236E43F0AD
:1033A00040032366606D78B10A4B0365FEF740FF6A
:1033B00050B1236E43F04003236605E00191DA68C3
:1033C00001929B680193019B05B0F0BD2046FFF779
:1033D0007EFFF9E7D933200008B5806B0023A0F801
:1033E0004630C387FFF773FF08BD82B0026804232D
:1033F000906810F4C06001D102B07047013BD16801
:1034000013F0FF0301910199F2D10320F4E7704713
:10341000254A0368904212D0B0F1804F0FD0A2F538
:103420007C4290420BD002F58062904207D002F5B8
:103430008062904203D002F57842904208D123F096
:1034400070034A68134323F44073CA68134316E0B9
:10345000164A9042F7D002F580629042F3D002F50E
:1034600080629042EFD0A2F598329042EBD002F504
:1034700080629042E7D002F580629042E3D04A69D0
:1034800023F08003134303608B68C3620B6883627D
:10349000054B984203D003F58063984201D10B6934
:1034A0000363012343617047000001400040014075
:1034B00010B5044650B390F83D3003F0FF021BB93D
:1034C00080F83C20FFF7A3FF02232068211D84F829
:1034D0003D30FFF79DFF0123002084F8483084F839
:1034E0003E3084F83F3084F8403084F8413084F82E
:1034F000423084F8433084F8443084F8453084F80E
:10350000463084F8473084F83D3010BD0120FCE798
:1035100010B501F01F010124036A8C408A4023EAA0
:1035200004030362036A1A43026210BD082908B546
:1035300028D012D8C1B104291CD090F84330012BF7
:1035400016D1082905D90C294FF0020346D01029BD
:1035500047D0022380F8433027E00C291FD01029E0
:10356000EBD190F842300FE090F83E30012B19D0AB
:10357000012032E090F83F30012BF9D1022380F88E
:103580003F3012E090F84030013B18BF0123002B80
:10359000EED10829D7D1022380F8403005E090F819
:1035A0004130F1E7022380F83E3000680122FFF746
:1035B000AFFF1B4B984203D003F58063984213D1B1
:1035C000436C43F4004343648268164B1340062B5C
:1035D00002D0B3F5803F1DD1002008BD80F84130F6
:1035E000E3E780F84230E0E7B0F1804FECD00E4BDB
:1035F0009842E9D003F580639842E5D003F58063F3
:103600009842E1D003F59A339842DDD0A3F5943384
:103610009842D9D0036843F001030360DCE700BFA0
:103620000000014007000100000400407047000056
:1036300038B50446C0692169A26823680A436169F4
:103640001D680A436F4902432940256A0A43E1681D
:103650001A605A6822F440520A435A60A269996873
:103660002A4321F430610A439A60674A934213D196
:10367000664BD3F8903003F00303022B00F0A680D2
:10368000032B00F09D80012B68D0B0F5004F00F0B7
:103690009180FFF745FA12E05D4A934227D15B4BD8
:1036A000D3F8903003F00C03082B00F08F8017D86C
:1036B000002B53D1B0F5004F77D0FFF721FA002847
:1036C00076D0626800EB5203B3FBF2F39BB24FF685
:1036D000EF72A3F11001914204D82268D36067E031
:1036E0000C2B6DD001200023C4E9193338BD494AA1
:1036F000934209D1454BD3F8903003F03003202B8F
:1037000064D0D5D9302BECE7434A934209D13F4BE3
:10371000D3F8903003F0C003802B57D0C8D9C02B0A
:10372000DFE73E4A93420BD1384BD3F8903003F495
:103730004073B3F5007F49D0BAD9B3F5407FD0E7E5
:10374000374A934213D1314BD3F8903003F440639E
:10375000B3F5006F3AD007D8002B96D0B0F5004FE4
:103760002BD1FFF701F922E0B3F5406FB9E72D4AFD
:1037700093420BD1254BD3F8903003F44053B3F56B
:10378000005F23D094D9B3F5405FAAE7264A93425D
:10379000A8D11E4BD3F8903003F44043B3F5004F4B
:1037A00014D085D9B3F5404F9BE7FFF7A9F990B93D
:1037B000002098E7FFF7B4F9F9E7FFF7D5F87EE7BF
:1037C000B0F5004F07D04FF400407AE7B0F5004F56
:1037D00016487FF476AF62684FF6EF71530803EB3B
:1037E0004003B3FBF2F39AB2A2F1100088423FF615
:1037F00079AF23F00F03C2F3420221689BB2134357
:10380000CB60D5E7F369FFEF0010014000380240BC
:103810000044004000480040004C00400050004080
:103820000014014000780040007C00400024F400B7
:10383000436ADA0710B506D50168846A4A6822F43B
:10384000003222434A609C0706D50168C46A4A6870
:1038500022F4803222434A60590706D50168046B7E
:103860004A6822F4802222434A601A0706D501687A
:10387000446B4A6822F4004222434A60DC0606D5C3
:103880000168846B8A6822F4805222438A60990618
:1038900006D50168C46B8A6822F4005222438A600C
:1038A0005A0610D50168046C4A68B4F5801F22F4EA
:1038B000801242EA04024A6005D14A68446C22F44C
:1038C000C00222434A601B0606D50268816C536819
:1038D00023F400230B43536010BD2DE9F843DDF8BA
:1038E000209005460F46164698462A68D36937EA5F
:1038F00003030CBF01230023B34201D000201BE0CF
:10390000B9F1FF3FF2D0FCF7EDFFA0EB08002C6807
:103910004845236802D8B9F1000F0FD123F4D073C2
:103920002360A36823F00103A3602023AB67EB6748
:103930000023032085F87430BDE8F8835A07D4D5F6
:10394000E3691B05D1D54FF400632362236823F498
:10395000D0732360A36823F00103A3602023AB6727
:10396000EB67C5F88030E3E773B500260446C0F87E
:103970008060FCF7B7FF236805461B681A0716D45A
:1039800023681B685B070AD56FF07E4300224FF463
:103990008001204600932B46FFF79FFF98B9202314
:1039A0000020A36784F87400E36720660CE06FF0E2
:1039B0007E4332464FF40011009303462046FFF742
:1039C0008CFF0028DCD0032002B070BD10B5044687
:1039D00040B3836F1BB980F87430FFF727FE22686D
:1039E00024232046A367136823F001031360FFF725
:1039F0001FFE012816D0636A13B12046FFF718FF97
:103A0000236820465A6822F490425A609A6822F04D
:103A10002A029A601A6842F00102BDE810401A605A
:103A2000FFF7A2BF012010BD70B50546064655F848
:103A3000044B54B900F0F0FE346824B928462C46F3
:103A400001F0D4FF356000F0F1FEAC4204D07322E7
:103A50000249034801F082F8204670BD2634250053
:103A6000353425000368012200211B6918470368CB
:103A700000221B69114618476FF0150070470000BF
:103A800003460144002010B5074C8B4200D110BD05
:103A900013F8012B80EA02600822400028BF604032
:103AA000013AFAD1F1E700BFB71DC104426810B472
:103AB0008AB1D0E9033404F0010123B959B161108E
:103AC0005158CB5801E00029F9D1816802EB64001C
:103AD0005DF8044B18475DF8044B704713B501239C
:103AE000446884F8D530B0F95A300093B0F95830B2
:103AF000B0F95620B0F95410201DFDF7B7FD02B003
:103B000010BD000010B50B4C2368BFF35B8FDB07C3
:103B10000ED4204601F0BEFC50B1074801F066FF0C
:103B2000064A0749044801F0A1FC204601F0D4FCF4
:103B3000014810BD081B00200C1B0020F8020020CB
:103B4000695A20000C4B002130B51C680B4B1A46FB
:103B50008C4201DC002009E093F8D4503DB11D688F
:103B6000854204D14FF4A07303FB012030BD013125
:103B700003F5A073ECE700BF301B0020341B0020CE
:103B800013B50E490A68052A11DDCC220C490D48EF
:103B900000F0E4FF90F8D44064B100F5A070013B60
:103BA000F8D11A4608490948009301F075FA07232D
:103BB0000748F4E701320A6002B010BD301B002054
:103BC000A1342500A9342500D234250002010C803F
:103BD000341B002090F8D53010B504462BB10430CA
:103BE000FDF7BCFE002384F8D530024A1368013B80
:103BF000136010BD301B0020194B37B5036004461D
:103C0000436893F8D4302BB91A46164916480093E6
:103C100001F042FAFFF776FF054601F0EFFE626819
:103C2000D2F8D030A34204BF0023C2F8D03092F8BB
:103C3000D430013BDBB282F8D43013B96068FFF7AF
:103C4000C9FF284601F0F6FE04F13C0001F0A2FE97
:103C5000E06908B100F0C6FD204603B030BD00BFEA
:103C60004C4A2500ED34250017010C8010B50446A0
:103C7000FFF7C2FF9421204601F04CFE204610BD04
:103C80004368D3F8D030834210B5044612D0D0F840
:103C900090309847606800230430D4E91E12FDF785
:103CA00019FF6068D4F880100430FDF7EDFF6368F9
:103CB000C3F8D04010BD036870B50446DB680D46FC
:103CC000164698476068D0F8D030A342C4E91E5623
:103CD0000BD10023324629460430FDF7FBFE236852
:103CE00020461B69BDE8704018472046FFF7C8FF13
:103CF000F5E7036870B50446DB680D4698476068D1
:103D0000C4F88050D0F8D030A34209D129460430FD
:103D1000FDF7BAFF236820461B69BDE870401847CD
:103D20002046FFF7ADFFF5E7B0F96C30013303D063
:103D3000C36D11B1426E13607047826E1B04FAE7C7
:103D400038B503680446DB68984794F885305A1CF8
:103D500003F0FF05D2B284F8852043B92046FFF76F
:103D60008FFF29462046BDE83840FFF7DDBF38BD4C
:103D700010B590F885300446013BDBB280F8853001
:103D800013B90121FFF7D0FF236820461B69BDE866
:103D90001040184738B504460D46FFF7D1FF60685C
:103DA00029460430FDF78EFF05462046FFF7E0FF69
:103DB000284638BDF7B504461F460D461646FFF7A0
:103DC000BFFF94F884306068294601933246089B0F
:103DD000043000933B46FDF7B5FF05462046FFF74C
:103DE000C7FF284603B0F0BDF8B50746044657F8AC
:103DF000046BD6B900F010FD2668A6B9002528226C
:103E000004F108003E46294665603BF019FD282272
:103E1000294604F1340025633BF012FD84F8645018
:103E2000C4E91755276000F001FDBE4204D073229B
:103E30000249034800F092FE3046F8BD26342500C2
:103E4000353425000023082273B5C0E91E230386FC
:103E5000044680F88530164BC0F88030FF2380F888
:103E60008430FFF74FFE054601F0C8FDD4F88C60A2
:103E70003046FFF767FE606018B9FFF781FE6060AB
:103E8000066090F8D430FF2B06D1002309490A4878
:103E90001A46009301F000F9013380F8D430284627
:103EA00001F0C8FD6068D830FFF79EFF02B070BD1A
:103EB00040420F00FD34250015010C802DE9F04132
:103EC0001E46204B00250446036088461E4B1746BD
:103ED00085618360C561C56280F832501B49C0604E
:103EE000C0E904553C3001F04FFD4FF6FF73294601
:103EF0001C22A4F85A3004F15C03A4F8548018463C
:103F0000A4F85670A4F858603BF09AFCBDF918105C
:103F1000012200F0B4F80E4BB4F95820B4F9561051
:103F2000C4F89030B4F9540084F88550C4F888502F
:103F3000FDF76EFBC4F88C002046FFF783FF204698
:103F4000BDE8F0814C4A2500AD3A20000F35250030
:103F5000DD3A2000406808B5A830FFF765FDBDE8F0
:103F6000084001F04BBD406808B5A830FFF75CFD84
:103F7000BDE8084001F05EBD03681B6818470000FB
:103F800010B5084B04460022084623600023A161B7
:103F90000549C4E902230023C4E9043300F04AFAC6
:103FA000204610BD6C4A2500793F200007B500F17E
:103FB00008010090806900F07AFA03B05DF804FB14
:103FC00000F10801806900F08CBA002070470029D8
:103FD0000CBF6FF01800002070470120704784B0BC
:103FE00001A804B080E80E0070470000EFF31083D2
:103FF00072B6054A117831B9DB43044903F0010375
:104000000B70012313707047B4220020B5220020EA
:1040100008B5EFF31083DB4313F0010304D036221D
:104020000549064800F09AFD054A1370054B1B78B8
:1040300003B162B608BD00BF733525008F3525007A
:10404000B4220020B5220020F8B50F4604461546DC
:104050001E46FCF715FC013710D020685EB1A3683E
:10406000186001212046FCF72FFC29462046BDE8B8
:10407000F840FCF725BCE3680004F1E7F8BD1346FF
:104080000022FFF7E1BF0022FFF7F9BF00487047A9
:10409000704A2500024B1B680BB102481847704755
:1040A00004030020704A250007B5024608468A42EC
:1040B0000AD0531C08D0013005D00023044905481C
:1040C000009300F0E9FF104603B05DF804FB00BF69
:1040D000A935250030010180B1F900305A1C01D109
:1040E00018467047834201D1486870470C31F3E7A6
:1040F000421C13B504460AD0FFF7EEFF431C06D15D
:104100000023224603490448009300F0C5FF02B093
:1041100010BD00BFBA35250030010180B1F9003073
:104120005A1C01D118467047834201D188687047F4
:104130000C31F3E72DE9F041456895F832706FBB1B
:1041400003685B6898472C6A844227D0041B2B695C
:10415000A9681C4095F934202862A1FB0441B2B142
:104160006E6A361941F10001002A19DBC2F1200004
:10417000A2F1200326FA02F401FA00F021FA03F377
:10418000D14004431C4304FA02F2B21A6A62D5E930
:104190000A321B1941EB0201C5E90A31BDE8F08181
:1041A000D5F80C8030463B4642464DF08BFA08FB72
:1041B000106604466E62EAE7824206D98A420BD94B
:1041C000884294BF002001207047884206D98A4265
:1041D0008CBF0020012070470120704700207047ED
:1041E0002DE9F04146680546336B23F07F4828F0FF
:1041F000FF08B8F1000F5CD1FFF79CFF7368002B3C
:1042000059D0D3E90003D6E90A1281429A4104D376
:104210002B68BDE8F0415B6918476C68D4E90A1265
:10422000401A63EB020CE369D4E90572824273EB36
:104230000C031FD3E368A3FB000103FB0C1194F9EB
:104240003330A3B1A26802F1FF3C1CEB000041F146
:104250000001002B1BDBC3F1200CA3F12002D8408E
:1042600001FA0CFC21FA02F240EA0C0010438742EA
:1042700028BF0746236A1F4423691F40336ABB4295
:1042800009D140F2C9121149114800F067FC4346B8
:104290004DF018FAEBE72B6838461B6998472B68F6
:1042A0005B6898473A460146306AFFF785FF002869
:1042B000AED1BDE8F0817369306A326918442B6869
:1042C00010401B69BDE8F041184700BF1F362500AC
:1042D000313625004368F7B593F830200446002AAC
:1042E00077D193F83230002B73D103681B6898475D
:1042F0002368DB69984703682BB91A463649374863
:10430000009300F0C9FE1E46354A1146B6FBF2F294
:1043100001FB12620E46002AF7D1314A0126656878
:10432000B2FBF1FC1F22C5F808C0013A03D306FA1C
:1043300002F7BC45F9D185F83320B3FBF1F21F2316
:104340000121EA6001FA03F6B24201D0013BF9D241
:1043500085F834304168081F1C2805D900232149FD
:1043600021481A460093CCE720294FF007074FF069
:10437000000618BF012307FA00F70CBF4FF0FF3308
:104380008B406F6118BF03F1FF33501E46F1FF31C0
:104390002B613346E7FB0C014DF094F92368C5E926
:1043A00006015B68C5E900669847636828620021DA
:1043B000012200205E621A8683F83260C3E90A0196
:1043C0002046FFF7B7FE204603B0BDE8F040FFF7F8
:1043D00007BF03B0F0BD00BF553625000E010480B5
:1043E00040420F006E36250005010480F3B4069CA0
:1043F000002745688C606C68C1E9002334B9CC6043
:104400007FB9696002B0F0BCFFF7EABE666801964A
:104410002668B242019E73EB0606F0D32746E46895
:10442000ECE7F960D5E90A4194429941EAD202B039
:10443000F0BC704738B505460C46FFF74BFF00F05F
:104440005DFC6B681C60BDE8384000F06DBC70B569
:10445000054600F053FCD5E90034DB68984794F832
:1044600032301BB1BDE8704000F05EBC012384F81F
:1044700031306368A3B12846FFF75CFE6368D4E976
:104480000A62D3E9000186428A4109D36A68DB687F
:10449000526863602368002BEBD090689847E8E788
:1044A0000023284684F83130FFF79AFEDAE72DE939
:1044B000F34104460D4617461E46DDF8208000F005
:1044C0001DFC2046FFF736FE3A4633462946204675
:1044D000CDF80080FFF78AFF02B0BDE8F04100F0A0
:1044E00023BC38B505460C4600F008FC6A685368E2
:1044F000A34209D1DB6828465360FFF771FEBDE88F
:10450000384000F011BC1346002BF8D0DA68A24204
:10451000F9D1E268DA60F2E738B50446FFF7DAFE6F
:1045200000F0ECFB2046FFF705FE6368D3E90A457F
:1045300000F0FAFB2046294638BD7047024B1B6845
:104540000BB1024818477047080300209C4A250019
:10455000B1F90C20B1F90410FCF7E4BD08B5BFF3C4
:104560005F8F1C4BD3F8902012F47C4FC2F30721CD
:1045700004D13B221849194800F0F0FA00221046F5
:10458000C3F894208A421FD11022C3F89C20144AF9
:10459000C3F8A0201322C3F89C20124AC3F8A0201D
:1045A0001122C3F89C20104AC3F8A0200F4AC3F878
:1045B0009C200F4AC3F8A0200722C3F89420BFF321
:1045C0004F8FBFF36F8F08BDC3F898200132C3F837
:1045D000A000D7E700ED00E0F33625000237250004
:1045E00039F00206390702133FF50B131200008061
:1045F00039000213102300F007B8202300F004B89C
:10460000302300F001B840239C46F0B404AE754658
:10461000E80801D3EFF309860E4F0FCE0FC70FBC8A
:104620000FC74046494652465B460FC71DCE310074
:10463000A60A00D304316E0900D248311FC7EFF338
:1046400009806946EFF3148663C76046014900F0AC
:1046500077F800BFF8010020F0B52B4E85B000249C
:1046600035462146013456F8042B284800F02CFB2F
:104670000D2CF6D1AB6C264C02936B6C2548019344
:104680002B6C0093696BD5E90E2300F01DFB2168AC
:10469000214800F019FBE16AA26AA36AA06AD2B2BB
:1046A000266BC3F30723E76B000CCDE9016700908D
:1046B0001A4800F009FBA36A1E0603D5616B18486F
:1046C00000F002FBA36A180403D5A16B154800F0A3
:1046D000FBFAEB6C190712D5134800F0F5FA2B6DB5
:1046E000DA070FD5114800F0EFFAEB6C5B074CBF0F
:1046F0000F48104805B0BDE8F04000F0E5BA0E489C
:1047000000F0E2FA0D48EEE7F80100200F3725002F
:1047100000ED00E01D3725006C3725007A372500B5
:10472000C9372500D7372500E5372500F4372500A0
:10473000243825003038250014382500013825009C
:1047400007B504460D461A48012100F036FA68BB49
:10475000184800F0B9FA302C19D0402C1CD0202C6D
:104760001FD1154C154800F0AFFA154800F0ACFA0F
:10477000FFF772FF134800F0A7FA0D4B00221A70E2
:1047800000232A4610492046009300F085FC0F487C
:104790000F4C00F099FAE8E70E480F4C00F094FA3D
:1047A000E3E70E480E4C00F08FFADEE70024E7E75F
:1047B000BD2300203C3825003E01FF8065382500E0
:1047C000923825009D382500BC3825007438250016
:1047D0003F01FF807D3825004001FF80883825009B
:1047E0003D01FF80024B1B6803B11847704700BFB3
:1047F0002823002010B5044600F080FA204610BDA2
:1048000010B5044600F090FA204610BD6FF0150078
:1048100070476FF015007047034B186818B14FF0E0
:10482000FF3102F0BBB97047742C0020024B1868AE
:1048300008B102F0CBB97047742C00208E220249D7
:10484000024808B500F08AF91639250023392500F9
:1048500010B504460846FFF75FFEC4E90001204694
:1048600010BD000010B50446FFF78AFB0A4B204636
:10487000A16940F8203BFFF7EBFF2046D4E908236D
:10488000C4E90A2300220023C4E90C230023C4E95D
:104890000E3384F8403010BDD04A25004FF0FF3071
:1048A000704738B590F83F5004460DB1FFF7C6FF8A
:1048B000FFF786FB94F84030A5872BB184F8405071
:1048C000BDE8384000F00EBD38BD000008B501213C
:1048D000383000F069F918B1024B4FF080625A602D
:1048E00008BD00BF00ED00E010B50446FFF768FB0F
:1048F00000234FF0007284F83F30014B5A6010BD26
:1049000000ED00E010B5044601F1300000F05EF962
:10491000C4E90001204610BDD0E90C32013342F158
:104920000002C0E90C32D0E90A3213F57A7342F181
:104930000002C0E90A327047D0E90A2312F57A7200
:1049400043F10003FFF732BB08B5012380F83F3085
:10495000836B1BB1034B4FF080625A60FFF7ECFF93
:1049600008BD00BF00ED00E090F83C3010B50446F3
:104970004BB1002380F83C3090F83E3013B901234E
:1049800080F83D3010BD90F83F30002BFAD0836B9B
:104990004FF0806201338363034B5A60FFF7BCFF23
:1049A0002046FFF7C9FFEDE700ED00E037B50D4603
:1049B000044689696846FFF74BFF00980199D5E9DD
:1049C0000A32C01A61EB0201B0F57A7F71F100037F
:1049D00006D200220023C4E90023204603B030BDE4
:1049E000B0F5FA6F71F1000301D20122F2E700295C
:1049F0004FF47A724FF00003D8BF00214CF062FEF2
:104A0000C4E90001E9E7000091F83F30F7B5054639
:104A10000C4613B991F83C6026B1E52211491248C1
:104A200000F09CF86846FFF7C1FF4FF47A71DDE9AA
:104A30000030A663A3FB017201FB0022D4E90A1631
:104A4000C91942EB0602C4E90A12D4E90C125B1838
:104A500042EB00022846C4E90C32C5E9003203B03B
:104A6000F0BD00BF163925002D3925002DE9F34191
:104A70001E4690F83F3004461546174623B158228B
:104A80003049314800F06AF890F83C305BB9014693
:104A90006846FFF7B9FF009BAB42019BB34105D3CA
:104AA000012384F83D3002B0BDE8F081214668461C
:104AB000FFF728FF4FF47A73A5FB035803FB068822
:104AC000D4E90832DDE90001ED184FF0010348EBAD
:104AD000020894F84020A3877AB9A2693F1A1268A5
:104AE00066EB010692F8202032BB84F8403000F0DB
:104AF000E3FB052F76F100060DD2002384F83E304B
:104B000094F8403023B9012384F8403000F0D4FBFE
:104B10002A4643460AE094F84030002BEDD10123A9
:104B2000B5F57A6284F83E3068F10003204602B0A1
:104B3000BDE8F041FFF73ABA052F76F10006DCD365
:104B4000EDE700BF163925002339250035F07EBC7E
:104B500035F048BF35F01CBB35F088BA07B50B46B9
:104B6000009201460022014800F096FA4401FF80BD
:104B700003460122D3E84F0FC3E8412FC0B20029FA
:104B8000F8D17047D0E85F3F5B18C0E8523F002A79
:104B9000F8D198B27047D0E85F3F5B1AC0E8523F47
:104BA000002AF8D198B27047034653E8000F401A24
:104BB00043E80002002AF8D170470346D3E84F0FBC
:104BC000C3E8421FC0B2002AF8D1704738B5044686
:104BD00000F094F8D4E9004500F0A6F820462946F4
:104BE00038BD000000B589B000F088F8102101A898
:104BF000FFF749FA0424039B019A0F481A6000F05A
:104C00008DFE019B049A1B040B48136000F086FE86
:104C1000013CF0D10424039B019A08481A6000F07B
:104C20007DFE019B049A1B040448136000F076FE8D
:104C3000013CF0D1DEE700BFF0490200801A060017
:104C400073B5002201460446022000F0C1FC0D2687
:104C500000F054F80022254614F8013B23B902B0B5
:104C6000BDE8704000F060B80A2B09D10D2A07D0CA
:104C700001220DF1070102208DF8076000F0A8FC69
:104C800001222946022000F0A3FC14F8012CE2E7DF
:104C900000B5A3B002460B46842101A83AF06CFC93
:104CA000832806D9074B1A681B79CDF883208DF825
:104CB0008730002802DD01A8FFF7C2FF23B05DF8AE
:104CC00004FB00BF4A3925000FB407B504A951F809
:104CD000040B0191FFF7DCFF03B05DF804EB04B0B7
:104CE0007047EFF31080C04300F001007047EFF30E
:104CF0000580003818BF01207047000008B5FFF795
:104D000075F9064A1368591C04D13F220449054825
:104D1000FFF724FF0133136008BD00BF2C230020E0
:104D200099392500A9392500044A136823B1013BAC
:104D300013600BB9FFF76CB9704700BF2C2300203C
:104D400008B50B48FFF714FF28B1FFF7D7FFBFF3F3
:104D50004F8F20BFFDE7FFF7CAFF08B1FFF742FF03
:104D6000FFF7BFFF0028F9D0012000F087FD00BF4A
:104D7000BC2300202DE9FF41494C0E4680461746D2
:104D80002168484801F0C043B3F1C04FC1F3074365
:104D90000CBF4D428DB22A46FFF796FF6FF4987311
:104DA0001D44132D0FD8DFE805F00A5255585B61FA
:104DB0005E640E0E0E0E0E0E0E0E0E0E0E67A16827
:104DC0003948FFF781FF4046FFF73AFF61683748EF
:104DD000FFF77AFF4EB13648FFF732FF3046FFF754
:104DE0002FFF39463348FFF76FFFA1683248FFF7BE
:104DF0006BFF2368314A1A44012A02D9304A934290
:104E00003ED1A268002A40D1E368002B45D0596802
:104E10002C48002908BF0146E0692B4D0390A0698A
:104E2000029060690190206900902848002A18BF0C
:104E3000054627482A46FFF747FF21682548FFF720
:104E400043FF254804B0BDE8F041FFF73DBFA1682E
:104E50002248B6E7A1682248B3E7A1682148B0E735
:104E6000A1682148ADE7A1682048AAE7A1682048C9
:104E7000A7E7A1681F48A4E71F48FFF725FFA2E79F
:104E80001E4A9342BDD00022BEE792F84C20C2F3E6
:104E9000C00282F00102D2B2B6E70A49BCE700BF05
:104EA00038230020EF392500403A2500E83A250054
:104EB000F93A2500013B2500053B2500C2FE007F95
:104EC0004001FF80DA392500BB382500E439250090
:104ED000193B2500723B2500C13B2500563A2500B1
:104EE000663A2500753A2500883A25009C3A250047
:104EF000B03A2500BF3A2500D53A25003D01FF8094
:104F00007047000070B52B4B90B00C46164610EA67
:104F1000200538BF1D463C22002101A83AF090FC34
:104F2000254B00952B440294012B02D9234B9D4223
:104F300036D1E36B0193636B0793214B5B69DA6BAB
:104F4000039304925A6B1B6B05920693FFF7D6FEF0
:104F50001C4A13680133012B13600BD16D461A4CA8
:104F60000FCD0FC40FCD0FC40FCD0FC495E80F00A8
:104F700084E80F006C46154D0FCC0FC50FCC0FC544
:104F80000FCC0FC594E80F0085E80F00104BA5F17A
:104F900030001B6853B19847FFF7C6FE10B070BDD4
:104FA0000C4B9D42C5D06B460196C5E7FFF7A8FFA5
:104FB000F2E700BF0101FF80C2FE007F4001FF80D9
:104FC00010040020B823002078230020382300207C
:104FD000342300203D01FF800FB407B501210D48A7
:104FE0007546FFF7EAFD044688B901462A460A4895
:104FF000FFF788FF224621460848FFF7BBFE05A9B8
:1050000004980191FFF744FE0548FFF719FEFFF7EA
:1050100097FE00BFBD2300200001FF80DB3B250081
:10502000BA3825007047000038B5164CD4F88030E7
:10503000002B25DA3C2104F18000FEF721FDD4F895
:10504000BC3083421CD1D4F8B830CBB90E4B01250B
:1050500004F180001D70FFF7E5FFD4F8B430002B99
:105060000EDD3C2104F18000C4F8B850FEF708FDC5
:10507000D4F8B430C4F8BC00002B01DDFFF760FEAB
:10508000002038BDF801002030230020014B1878A3
:10509000C0B27047BD23002080B506460C4630489C
:1050A0000121F04617461D46FFF787FD48B94246E5
:1050B00039463046FFF726FF029A29462046FFF779
:1050C00059FE284E3C212848FEF7DAFCD6F8BC30C1
:1050D000264D3C218342244C28460ABFD6F8B430E2
:1050E000012301336B630023AB63FEF7C9FCE86364
:1050F000FFF704FE0FCD0FC40FCD0FC40FCD0FC4AB
:1051000095E80F0084E80F00303C04F01F0303F51E
:105110008073BFF34F8F164A203BC2F86842203499
:10512000002BF9DCBFF34F8FBFF36F8FFFF7FCFD50
:105130001048FFF7C9FDD6F8B410002902DD0E486B
:10514000FFF7C2FDBFF34F8F09490C4BCA6802F449
:10515000E0621343CB60BFF34F8F00BFFDE700BF9A
:10516000BD230020F8010020780200203823002011
:1051700000ED00E0F03B2500233C25000400FA058B
:1051800038B5064D286840B9054CFEF77FFF01464B
:105190002046FFF767FB20462C6038BD082400201E
:1051A000C023002008B5836823B9054B1B6893F81A
:1051B0003D0008BDC06898470028F6D0F9E700BF59
:1051C00008240020F7B504464FF0FF356FF0004685
:1051D000164F2046FFF7E6FF30BBD4E90023B34269
:1051E00008BFAA4202D03868FFF740FC01A8FFF7C9
:1051F00001FB2046FFF7D6FF98B9D4E90023B3425C
:1052000008BFAA4207D100F091F801A8FFF7F8FA09
:10521000BFF36F8FDDE73B6893F83C30002BF2D192
:10522000F3E701A8FFF7ECFA03B0F0BD0824002073
:1052300030B587B00D4D0446CDE902230A9B049397
:105240000B9B0593FFF79CFF02A8FFF7BBFF2868A5
:10525000FFF727FB68462968FFF7D6FB2046DDE904
:105260000023C4E9002307B030BD00BF082400209C
:105270002DE9F041DFF83C8086B005460E4604A8D3
:10528000D8F800101746FFF73DFBD8F80020DDE9FD
:105290000443926BA41A02A863EBE2732A19CDE9C6
:1052A000006743F10003FFF7C3FF0298001B06B03D
:1052B000BDE8F0810824002013B5074C01212046E9
:1052C000FFF760FC034628B900900449228804488F
:1052D000FFF7E2FE02B010BD0C2400206D3C25005B
:1052E0002301048013B5094C01212046FFF753FC2C
:1052F0004FF6FF73984206D10023054905480093F5
:105300002288FFF7C9FE02B010BD00BF0C240020A8
:105310008F3C250024010480034B188880B2B0FA2A
:1053200080F04009704700BF0C24002008B5FFF74B
:10533000E5FCFFF7F1FF28B1FCF7C2F8BDE8084033
:10534000FFF7F2BCFCF7AAF8F8E76FF01C00704713
:105350006FF01500704701207047002070477047BC
:1053600070B515460C468E18B44201D1284670BD62
:1053700014F8011B0148FBF7DDF8F5E7081A0020D7
:1053800038B511F001040D4605D00848FBF736FE8C
:10539000041E18BF0124EB0605D50448FBF73EFEAA
:1053A00008B144F01004204638BD00BF081A0020A0
:1053B00010B5044635F042F8204610BD10B5104631
:1053C0000C4622B10248FBF77FF82070012010BD87
:1053D000081A002038B5084B044615460360074BF1
:1053E0001B6833B90648FFF7B3F829460448FBF7B2
:1053F00055FE204638BD00BFDC4A2500541A002067
:10540000081A00200020704700207047002307B5CD
:105410001A46024902480093FFF73EFEAD3C2500C4
:1054200029010180012008B500F028FA074A08493F
:1054300013681844884283BF064B0C224FF0FF309C
:1054400010608CBF1A601846704700BF0C03002024
:1054500000FC07201C52002000207047024B5822FD
:105460004FF0FF301A6070471C5200200120704737
:105470000120704708B502F0A1F808BD08B502F098
:10548000A5F808BD08B502F0A7F808BD08B502F0F8
:10549000ABF808BD10B50446037803F00303012BF5
:1054A00008D0FFF7B9F9237803F00302012A03D1EA
:1054B000FFF7BCF9002010BD2AB140F2D2620449C6
:1054C0000448FFF74BFB43F0020323700120F2E78F
:1054D000013D2500133D250008B5037803F00302C4
:1054E000022A05D040F2DB6206490748FFF736FB87
:1054F00023F0030343F001030370BDE80840FFF706
:1055000095B900BF013D2500313D25003F2870B50C
:1055100004462CDC174E56F820305A1C25D10228A0
:1055200023DCFFF771FF0346E8B92046FFF76AFF67
:105530000346C0B9104D2B68BFF35B8FDB0711D456
:105540002846FFF7A7FF68B14FF4E1320B490C483A
:10555000FFF740FF0B4A0C490948FFF787FF284631
:10556000FFF7BAFF064B46F82430184670BD0023FB
:10557000FBE700BF1003002010240020244B25006F
:1055800014240020F80200205F53200038B5041EC8
:1055900006DA3DF005F9092303604FF0FF3038BD0E
:1055A000FFF7B4FF0025084B43F824500028F0D043
:1055B00003685B699847041E04DA64423DF0F0F822
:1055C0000460EAE72846EAE710030020FFF7DEBFA1
:1055D00038B50C461546FFF799FF38B93DF0E0F8AD
:1055E000092303604FF0FF34204638BD036821468D
:1055F0002A46DB689847041EF6DA64423DF0D0F88C
:105600000460EFE738B50C461546FFF77FFF38B961
:105610003DF0C6F8092303604FF0FF34204638BD43
:10562000036821462A469B689847041EF6DA6442BE
:105630003DF0B6F80460EFE710B5FFF767FF30B94B
:105640003DF0AEF8092303600024204610BD036836
:10565000DB699847041EF8DA64423DF0A1F8046063
:10566000F2E700002DE9F74F06460F469046FFF798
:105670003EFB054630B1002332462D492D480093AC
:10568000FFF70AFDFFF72DFB0028F4D0B8F1000F5B
:1056900009DA3DF085F8162303604FF0FF34204609
:1056A00003B0BDE8F08F3046FFF7C6FF044640B1B7
:1056B000DFF884A02C464FF00D091AF806B0A84573
:1056C00012DCA045EBDDA8EB040239193046FFF7E8
:1056D0007FFF431CE1D00444002CC1BF3F19164B8F
:1056E00017F8012C9A55DAE77B5D0A2B1BD1BBF129
:1056F0000D0F18D0AC420BDA39192A1B3046FFF7D0
:1057000067FF411CC9D00444A542C8DC0AF806B0B2
:1057100001220A493046FFF75BFF421CBDD000283A
:10572000BDD00AF8069017F805B00135C7E700BFED
:10573000683D25002F01018018240020D843250052
:10574000FFF77ABF7FB504460D461646FFF7CFFA3E
:1057500030B100232246204920480093FFF79CFCEB
:10576000FFF7BFFA0028F4D0002E07DA3DF018F852
:10577000162303604FF0FF3004B070BD2046FFF7E2
:105780005BFF00B3164E01220DF10F012046FFF71B
:1057900039FF431CF0D00028EED09DF80F300D2BC0
:1057A00008D1325D0A2A0AD01A460A23012032554E
:1057B0002B70E1E70A2B04D1325D0D2AF3E7335554
:1057C000E1E71A46F2E732462946204604B0BDE832
:1057D0007040FFF717BF00BFA23D25002F010180D9
:1057E0005824002038B50C461546FFF78FFE38B90F
:1057F0003CF0D6FF092303604FF0FF34204638BD4C
:10580000036821462A461B699847041EF6DA64425B
:105810003CF0C6FF0460EFE7FFF7E4BF10B5FFF709
:1058200075FE30B93CF0BCFF092303604FF0FF3038
:1058300010BD03689B699847041E04DA64423CF07B
:10584000AFFF0460F2E70020F2E700000A4D0446D3
:1058500008B52B68986839F05BFA2B68D86839F07E
:1058600057FA0120FFF7DAFF0220FFF7D7FF0CB14C
:10587000FFF7B8F9FEE700BFE00B002008B5FFF71F
:10588000E5FF38B50D46FFF741FE044630B93CF060
:1058900087FF092303604FF0FF3038BD0368DB69E1
:1058A0009847002820460CBF4FF400434FF40053A4
:1058B0006B6023689B6A984728610020EDE7FFF73B
:1058C000E0BF000013B5044634F0B0FD034628B92C
:1058D0000090224602490348FFF7DEFB02B010BDEC
:1058E000DE3D25001F01018013B5044634F09EFD06
:1058F000034628B90090224602490348FFF7CCFB33
:1059000002B010BDFB3D25001F01018034F08EBDAB
:1059100034F094BD34F092BD34F090BD034A516A26
:10592000536A5B1A8342FBD3704700BF000C0040F0
:10593000054B064A1B68B3FBF2F343434FF4FA608E
:10594000B3FBF0F0024B1847FC02002040420F006E
:10595000414B25001FB500230446CDE90013031D6C
:10596000684602931023039300F0F2F9206020B9F7
:10597000352203490348FFF7F1F804B010BD00BF1A
:10598000603E25006F3E250010B50446FFF7E2FF9C
:10599000204610BD10B50446006800F0F1F920461D
:1059A00010BD00001FB50023044603620C4B002904
:1059B00018BF0B460093031D684602931C230393F4
:1059C0000B23019301F0D2F8206038B9FFF75EFB9A
:1059D00020B93E2203490448FFF7C0F804B010BDC7
:1059E000733E2500D33E2500DD3E250010B504465C
:1059F0000021FFF7D7FF204610BD000037B5044651
:105A00004FF0FF31006801F0C9F8054648B1FFF7D3
:105A10003DFB034640B900902A4604490448FFF77D
:105A20003BFB236A0133236203B030BD013F2500F5
:105A300015010280036A013B13B50362006801F09F
:105A4000C5F8044648B1FFF721FB034628B900908A
:105A5000224603490348FFF71FFB02B010BD00BFF9
:105A6000133F25001701028010B50446006801F0BD
:105A7000C5F8204610BD000008B538B100F088F820
:105A800020B1E32202490348FFF768F808BD00BFD0
:105A90006D3F2500014025001EF0040F0CBFEFF301
:105AA0000880EFF30980816911F8021C002932D1C6
:105AB00001B590E80F10E047BDE800508CE8030006
:105AC000244B93E80600914208BF70471A6041B921
:105AD0001EF0100F10D1204B186820F00100186044
